:100000000C945D000C9485000C9485000C94A71052
:100010000C94A7100C94A7100C9485000C948500E8
:100020000C9485000C9485000C9485000C94D011E0
:100030000C9485000C9485000C9485000C9485002C
:100040000C945D100C9485000C942B100C940510EE
:100050000C9485000C9485000C9485000C9485000C
:100060000C94B1100C9485000000000024002700BF
:100070002A0000000000250028002B0004040404CE
:100080000404040402020202020203030303030342
:10009000010204081020408001020408102001021F
:1000A00004081020000000080002010000030407FB
:1000B00000000000000000008C1211241FBECFEFD2
:1000C000D8E0DEBFCDBF12E0A0E0B1E0E8E3F2E3AC
:1000D00002C005900D92A830B107D9F725E0A8E03D
:1000E000B2E001C01D92A133B207E1F710E0CDE507
:1000F000D0E004C02197FE010E94E017CC35D10763
:10010000C9F70E94A0130C941A190C940000862FB2
:10011000E091ED02F091EE02309711F0BA010994EE
:100120000895862FE091EB02F091EC02309711F0E8
:10013000BA0109940895862FE091E902F091EA024C
:10014000309711F0BA0109940895862FE091E702E3
:10015000F091E802309711F0BA0109940895862FC2
:10016000E091E502F091E602309711F0BA010994AE
:100170000895862FE091E302F091E402309711F0A8
:10018000BA01099408950895862F642FE091EF0233
:10019000F091F002309711F0A90109940895E091CF
:1001A000F102F091F202309709F009940895CF938B
:1001B000DF93FC01A081B181109701F1EC01ED9179
:1001C000FC9111970190F081E02D69EFCD01099527
:1001D00088819981DC01ED91FC910190F081E02D05
:1001E00062E0099588819981DC01ED91FC91019093
:1001F000F081E02D65E0DF91CF910994DF91CF91FF
:100200000895A0919604B0919704ED91FC911197F7
:100210000190F081E02D682FCD0109941F93CF93B9
:10022000DF93182FEB0180915D0490915E046817B5
:10023000790760F480915B0490915C04C80FD91F2A
:10024000188380E0DF91CF911F910895E0918A0497
:10025000F0918B04309711F481E0F4CF81E080932A
:100260005A048091760490917704099580915D04F9
:1002700090915E04C817D90778F7DCCFCF93DF934E
:10028000EC01FB0130E020E0C901880F991F8C17B9
:100290009D0778F44081DB014D93BD011197918159
:1002A000979599279795942B9C932F5F3F4F329664
:1002B000EBCFC901DF91CF910895009721F0805CC9
:1002C0009F4F0C94D7000895AF92BF92CF92DF92C8
:1002D000EF92FF920F931F93CF93DF936C017B01FB
:1002E0008B01040F151FEB015E01AE18BF08C0178C
:1002F000D10759F06991D601ED91FC910190F081FF
:10030000E02DC6010995892B79F7C501DF91CF91C1
:100310001F910F91FF90EF90DF90CF90BF90AF9023
:100320000895FC01538D448D252F30E0842F90E0FB
:10033000821B930B541710F0CF96089501970895E0
:10034000FC01918D828D981761F0A28DAE0FBF2FA9
:10035000B11D5D968C91928D9F5F9F73928F90E0FF
:1003600008958FEF9FEF0895FC01918D828D98176E
:1003700031F0828DE80FF11D858D90E008958FEFAB
:100380009FEF0895FC01918D228D892F90E0805C74
:100390009F4F821B91098F73992708958BE793E0F4
:1003A0000E94C20121E0892B09F420E0822F0895E8
:1003B00080E090E0892B29F00E94CE0181110C94FD
:1003C00000000895FC01A48DA80FB92FB11DA35AF8
:1003D000BF4F2C91848D90E001968F739927848F65
:1003E000A689B7892C93A089B1898C918370806488
:1003F0008C93938D848D981306C00288F389E02D29
:1004000080818F7D80830895EF92FF920F931F93D9
:10041000CF93DF93EC0181E0888F9B8D8C8D9813B7
:100420001AC0E889F989808185FF15C09FB7F894C3
:10043000EE89FF896083E889F9898081837080640F
:1004400080839FBF81E090E0DF91CF911F910F915A
:10045000FF90EF900895F62E0B8D10E00F5F1F4F69
:100460000F731127E02E8C8D8E110CC00FB607FC78
:10047000FACFE889F989808185FFF5CFCE010E9406
:10048000E201F1CFEB8DEC0FFD2FF11DE35AFF4F91
:10049000F0829FB7F8940B8FEA89FB898081806294
:1004A000CFCFCF93DF93EC01888D8823B9F0AA8951
:1004B000BB89E889F9898C9185FD03C0808186FD1F
:1004C0000DC00FB607FCF7CF8C9185FFF2CF80816E
:1004D00085FFEDCFCE010E94E201E9CFDF91CF9100
:1004E000089590E0FC01EC55FF4F2491FC01E0578A
:1004F000FF4F3491FC01E458FF4FE491EE23C9F023
:10050000222339F0233001F1A8F4213019F12230EF
:1005100029F1F0E0EE0FFF1FEE58FF4FA591B491C7
:100520008FB7F894EC91611126C030953E233C932F
:100530008FBF08952730A9F02830C9F0243049F73B
:10054000809180008F7D03C0809180008F778093A1
:100550008000DFCF84B58F7784BDDBCF84B58F7DFE
:10056000FBCF8091B0008F778093B000D2CF809185
:10057000B0008F7DF9CF3E2BDACFCF93DF9390E0A1
:10058000FC01E057FF4F249184589F4FFC01849158
:100590008823C9F090E0880F991FFC01E859FF4FAC
:1005A000A591B491FC01EE58FF4FC591D491611112
:1005B0000DC09FB7F8948C91209582238C938881ED
:1005C000282328839FBFDF91CF910895623051F493
:1005D0009FB7F8943C91822F809583238C93E88178
:1005E0002E2BEFCF8FB7F894EC912E2B2C938FBF3F
:1005F000EACF8E3008F08E508770806480937C0044
:1006000080917A00806480937A0080917A0086FDE0
:10061000FCCF809178009091790008953FB7F894CD
:100620008091DF029091E002A091E102B091E2029C
:1006300026B5A89B05C02F3F19F00196A11DB11D3D
:100640003FBFBA2FA92F982F8827BC01CD01620F79
:10065000711D811D911D42E0660F771F881F991F34
:100660004A95D1F708958F929F92AF92BF92CF9201
:10067000DF92EF92FF926B017C010E940E034B010F
:100680005C01C114D104E104F104B9F00E940E032D
:10069000681979098A099B09683E734081059105AB
:1006A00080F321E0C21AD108E108F10888EE880E33
:1006B00083E0981EA11CB11CE4CFFF90EF90DF9067
:1006C000CF90BF90AF909F908F9008955F926F9260
:1006D0007F928F929F92AF92BF92CF92DF92EF92D2
:1006E000FF920F931F93CF93DF935C016901DA01AF
:1006F0005C90232B19F4CC24CA94DC2C8A013A0197
:10070000660E771ED0E0C0E0F12CE12C87E0882E49
:10071000912CF50180819181D8016C910C2E01C042
:10072000660F0A94EAF765296F77DC01ED91FC9179
:100730000190F081E02D0995BFEFEB1AFB0AF8015B
:10074000608170E0C4018C1B9D0B02C0759567959C
:100750008A95E2F7562E2196C730D10558F1CE146E
:10076000DF0441F1D5018D919C91652D6F77DC01FE
:10077000ED91FC910190F081E02D0995BFEFEB1A0E
:10078000FB0A551C5524551C2797E6CFEC14FD0495
:1007900008F4BFCFDF91CF911F910F91FF90EF90A1
:1007A000DF90CF90BF90AF909F908F907F906F9091
:1007B0005F9008950F5F1F4F6016710639F72097FD
:1007C00049F3EC14FD0430F7F5018081918161E07B
:1007D00070E001C0660FCA95EAF761506521DC013F
:1007E000ED91FC910190F081E02DDF91CF911F916F
:1007F0000F91FF90EF90DF90CF90BF90AF909F90C0
:100800008F907F906F905F9009941F93CF93DF93A9
:1008100000D0CDB7DEB7182F7A8369838091580452
:10082000909159040097C9F0DC01ED91FC91019081
:10083000F081E02D1031B8F461157044A0F4612FFF
:10084000606E099522E030E0AE014F5F5F4F62E0DD
:1008500070E088E594E00E9466030F900F90DF91AE
:10086000CF911F91089560EF099580915804909160
:100870005904DC01ED91FC910190F081E02D6FE6CF
:1008800009958091580490915904DC01ED91FC91F7
:100890000190F081E02D612F099522E030E0AE015A
:1008A0004F5F5F4F62E070E088E594E00E9466036E
:1008B0008091580490915904DC01ED91FC910190D4
:1008C000F081E02D67EF0995C8CFEF92FF920F936B
:1008D0001F93CF93DF93C82F8091580490915904B0
:1008E0000097C9F17A018B01DC01ED91FC91019037
:1008F000F081E02D60EF09958091580490915904A2
:10090000DC01ED91FC910190F081E02D6C2F0995B7
:10091000E7010E0D1F1DC017D10759F030E020E090
:10092000AE0161E070E088E594E00E9466032196E4
:10093000F2CF8091580490915904DC01ED91FC9123
:100940000190F081E02D67EFDF91CF911F910F9122
:10095000FF90EF900994DF91CF911F910F91FF903D
:10096000EF900895CF92DF92EF92FF920F931F9333
:10097000CF93DF93FC01E058FF4FE080EE2009F4B5
:100980005CC0EC01C05CDF4FA881B981109709F40D
:1009900054C0FC01EF57FF4FC080D180F601118198
:1009A0000081ED91FC9111970190F081E02D60EFB5
:1009B000CD01099588819981DC01ED91FC9101902F
:1009C000F081E02D69E7099588819981DC01ED913D
:1009D000FC910190F081E02D602F0995888199812B
:1009E000DC01ED91FC910190F081E02D612F0995E2
:1009F000F12C01E010E00F5F1F4FE016F10659F0F7
:100A000030E020E0A601400F511F61E070E0CE0110
:100A10000E946603F0CF88819981DC01ED91FC9101
:100A20000190F081E02D67EFDF91CF911F910F9141
:100A3000FF90EF90DF90CF900994DF91CF911F91BD
:100A40000F91FF90EF90DF90CF900895009711F0F5
:100A50000C94B20408952091B702260F3327331F58
:100A600021323105ECF420915103FC0190E080E04B
:100A7000243069F082E00895A091B7022191AC0181
:100A80004B565D4FA40FB52FB11D2C9301968617C1
:100A900098F38091B702680F6093B70280E00895E1
:100AA00081E008951092510381E0809350031092E9
:100AB0002B0361E082E10E94710261E083E10E9408
:100AC0007102E9EBF0E080818E7F808380818D7FF1
:100AD000808388E48093B80085E48093BC00089507
:100AE000CF93DF9391E0909394028823B9F0C09163
:100AF000B800D091BA008091BC008A7B8093BC0082
:100B000060E082E10E94710260E083E10E94710274
:100B10000E945205D093BA00C093B800DF91CF91E4
:100B200008958F929F92AF92BF92CF92DF92EF92F1
:100B3000FF920F931F93CF93DF93D0917A03D1321B
:100B400008F0D7C0182FC09179030E940E036B01E3
:100B50007C018091510381116BC082E0809351032D
:100B6000109350038FEF80934F0310924E03D09356
:100B70004D03A9E5B3E0EDE2F3E080E0D81391C0C6
:100B800010922C0380912C03CC0FC82BC0932C0304
:100B900080912B03813009F088C010922B030E94B2
:100BA0000E036B017C0180912C038093BB0080912C
:100BB000530390915403A0915503B0915603892B90
:100BC0008A2B8B2BA1F00E940E03009153031091EE
:100BD000540320915503309156036C197D098E09F9
:100BE0009F09061717072807390708F442C08091A4
:100BF000BC0083FDD8CF85EC8093BC000E940E031F
:100C00006B017C0180915103823009F450C08091C6
:100C10004F038F3F09F46FC080914F03803209F476
:100C20006CC080914F03803309F469C084E026C012
:100C30008091530390915403A0915503B0915603B2
:100C4000892B8A2B8B2B09F484CF0E940E03809072
:100C5000530390905403A0905503B09056036C1921
:100C60007D098E099F0986169706A806B90608F021
:100C700070CF809152030E94700585E01092580356
:100C800010927A0310925703DF91CF911F910F9129
:100C9000FF90EF90DF90CF90BF90AF909F908F909C
:100CA00008959D9191938F5F69CF85EEA5CF809137
:100CB000530390915403A0915503B0915603892B8F
:100CC0008A2B8B2B09F49ECF0E940E0300915303B5
:100CD0001091540320915503309156036C197D09EE
:100CE0008E099F09061717072807390708F08ACFCA
:100CF000C0CF81E0C3CF80E0C1CF82E0BFCF83E02F
:100D0000BDCF089508950895E091930280919202D5
:100D1000E81730F4F0E0EE58FD4F808190E0089540
:100D20008FEF9FEF089590919302809192022FEFA1
:100D30003FEF981748F4E92FF0E0EE58FD4F20817F
:100D400030E09F5F90939302C901089580919202D1
:100D500090919302891B990B0895CF92DF92EF92A5
:100D6000FF920F931F93CF93DF937C01CB018A01F6
:100D700020915703222389F0EB016B01C40ED51E8D
:100D8000CC15DD0569F06991D701ED91FC910190D9
:100D9000F081E02DC7010995F3CF642F0E942B0548
:100DA000C801DF91CF911F910F91FF90EF90DF90DD
:100DB000CF900895CF93DF931F92CDB7DEB76983AD
:100DC000209157032223F9F020917A03203258F022
:100DD00021E030E0FC013383228390E080E00F903B
:100DE000DF91CF91089580915803E82FF0E0E75A02
:100DF000FC4F998190838F5F8093580380937A038F
:100E000081E090E0ECCF61E0CE0101960E942B05DD
:100E1000F7CF90E080E00895DF92EF92FF920F937A
:100E20001F93CF93DF93EC01D62E7A01890188813D
:100E30008C3008F067C061E08D2D0E94BD02888172
:100E4000282F30E0F901EE0FFF1FE20FF31FEC51E6
:100E5000FB4F9D2D9F736081607C692B608320E236
:100E600032E02E193F0937FF02C02D5F3F4F359505
:100E7000279535952795298320E639E0201B310BEE
:100E800037FF02C02D5F3F4F359527953595279544
:100E90002A832CE0622F0E94D417829FB001112474
:100EA00030E020E0AB01420F531FFA01EE0FFF1FAD
:100EB000E40FF51FEC51FB4F908196FD16C02F5F9C
:100EC0003F4F2C30310571F781110FC01092800017
:100ED00082E0809381001092850010928400B19A84
:100EE00080916F00826080936F00E8818E2F90E088
:100EF000FC01EE0FFF1FE80FF91FEC51FB4F808143
:100F0000806480838881DF91CF911F910F91FF9042
:100F1000EF90DF900895CF938630B0F421E030E079
:100F2000082E02C0220F331F0A94E2F740912503D6
:100F300050912603672B51F42095309524233523B7
:100F40003093260320932503CF910895242B352B2E
:100F50003093260320932503909170029111F4CFD2
:100F6000C82F0E94F902BC018C2FCF910C9405046C
:100F70005F926F927F928F929F92AF92BF92CF9229
:100F8000DF92EF92FF920F931F93CF93DF93833003
:100F900008F061C0D1E0D80FDD0FDD0FDD0F5D2E51
:100FA000D53110F044E1542EC62F082FD8508D2E85
:100FB000912CC401880F991F9C01285E3B4F590159
:100FC000D12CC12C10E077247394D515C8F58EEF81
:100FD0008D0F8231F8F4F601E80DF91DE556FB4F4F
:100FE00090819230B8F48C2F87216624639481110C
:100FF00001C0612C7601EE0CFF1C913089F4172999
:1010000037E9E30EF11CF501EE0DFF1D862D90E092
:1010100091838083770CDF5F8FEFC81AD80AD5CF12
:10102000882371F3F701E956FF4FEA0DFB1D80811C
:101030009181019729F362E08D2F0E94BD02E0CFDC
:10104000011119C0F8948BB16C2F68276C7F612354
:1010500068276BB97894DF91CF911F910F91FF9022
:10106000EF90DF90CF90BF90AF909F908F907F9048
:101070006F905F9008950130D1F4C123F89495B139
:10108000812F8F73809589239C2F9F73892B85B91E
:1010900088B1612F62956695669563706095682347
:1010A000C295C695C695C370C62BC8B9D3CF1F705D
:1010B000F89498B1812F880F880F80958923C123D8
:1010C000CC0FCC0FC82BF1CF8F929F92AF92BF92D3
:1010D000CF92DF92EF92FF920F931F93CF93DF9304
:1010E000EB01843108F098C0082F10E0F801E556B4
:1010F000FB4F9081933009F49CC0943009F08CC070
:101100008250823108F081C0F801E85AFD4FC0805A
:10111000D12C7601EE0CFF1C4B01603282E0780787
:101120000CF03EC0F701EC0DFD1DE75FFA4F818129
:10113000A8E88A2E912C881A910887FD9394880C30
:10114000991C880C991C092C000CAA08BB088281E8
:1011500028E532E0281B310987FD3395220F331F24
:10116000220F331F032E000C440B550B281939098D
:101170004A095B09DB01653B710514F0A4EBB0E0A3
:10118000B7FF02C0B0E0A0E00E949B1724EB30E064
:1011900040E050E00E947117820E931EA41EB51EFF
:1011A000F701EC0DFD1DE75FFA4F20812C3068F54B
:1011B000318188E890E0831B910937FD9395880F72
:1011C000991F880F991F881699067CF0328188E54F
:1011D00092E0831B910937FD9395880F991F880F23
:1011E000991F881699060CF4C4010297880F991F5D
:1011F0004FB7F89430E0F901EE0FFF1FE20FF31F35
:10120000EC51FB4F928381834FBF000F111FF801F8
:10121000E155FB4FD183C083DF91CF911F910F9197
:10122000FF90EF90DF90CF90BF90AF909F908F9006
:1012300008957B01D82F833041F08BEF800F8230EF
:1012400020F087EF800F833058F461E08D2F0E94EB
:10125000BD02E114F10461F460E08D2F0E9471027F
:10126000000F111FF801E155FB4FF182E082D4CF4E
:101270008FEFE816F10411F461E0EFCFF801EC55BF
:10128000FF4FE491E33021F148F4E130B9F0E2306E
:10129000D1F080E8E816F1047CF7DECFE73011F1F9
:1012A000E83041F1E430A9F78091800080628093BA
:1012B0008000F0928B00E0928A00D2CF84B58068E3
:1012C00084BDE7BCCDCF84B5806284BDE8BCC8CF07
:1012D00080918000806880938000F0928900E09285
:1012E0008800BECF8091B00080688093B000E0920B
:1012F000B300B6CF8091B00080628093B000E092DE
:10130000B400AECF9EEF980F923180F4E82FF0E05A
:10131000DF01A556BB4F9C91913041F4EE0FFF1FAA
:10132000E155FB4F608371830C9471020895FF9225
:101330000F931F93CF93DF9300D0CDB7DEB7082F65
:1013400010E0F801ED50FD4F9081F62EF92204597E
:101350001D4F411104C0F80190819F1511F12F2DEF
:1013600030E03A832983A0915804B0915904109732
:10137000B1F0682F6F706069ED91FC911197019049
:10138000F081E02DCD01099522E030E0AE014F5F04
:101390005F4F62E070E088E594E00E946603F80128
:1013A000F0820F900F90DF91CF911F910F91FF90DE
:1013B0000895833040F5282F30E0F901EA50FD4FC1
:1013C0006083672B01F12D503D4FF9016081811140
:1013D00006C099B19C7F692341E00C949709813044
:1013E00049F493B126B19F73F0E42F9F900111242B
:1013F000922BF1CF26B130E035952795359527957D
:101400002F706223E9CF0895A82FB0E0A85ABD4FEE
:101410009C91292F30E0F901EE0FFF1FE20FF31F1F
:10142000E75FFA4FE0812E2F30E0F901EE0FFF1F4A
:10143000E20FF31FEC51FB4F80818F7B8083809103
:101440005602981308C0992319F0915090935602B0
:101450008FEF8C9308958823D9F3E0915702EF5FC3
:10146000E0935702F0E0E95FFD4F9083F1CFFC017C
:1014700001900020E9F73197BF01681B790BAC019F
:1014800081E70C946504CF93DF93DB0190915602C2
:101490009C3078F530915702682F70E0FB01E85AD4
:1014A000FD4F3323E1F0C32FD0E0C95FDD4F8881CA
:1014B0008083315030935702808123E0829FC001A6
:1014C0001124875F9A4F1A161B0674F4141615061A
:1014D0005CF49A01AD01DF91CF910C940C079083DD
:1014E0009F5F90935602E8CF20E639E040E252E059
:1014F000F2CF8DE291E0DF91CF910C94370A85ED28
:101500008093BC008091530390915403A0915503A4
:10151000B09156030796A11DB11D23E0B695A7957E
:10152000979587952A95D1F72091BC0024FD03C09B
:1015300010925103089540915303509154036091C8
:10154000550370915603452B462B472B69F30097A3
:10155000A105B10541F02AE22A95F1F700C00197F3
:10156000A109B109E1CF809152030C9470059F92BB
:10157000AF92BF92CF92DF92EF92FF920F931F93A1
:10158000CF93DF93C82ED12CE601C85EDB4FFE015E
:10159000ED57FF4F90819F3709F49FC0963061F45B
:1015A00090916F02992341F06630710529F01092F5
:1015B0006F029FEF909300017B01182F0EEF080F31
:1015C000023108F564307105F1F0F601E85AFD4F7B
:1015D00080818C30C0F490E0FC01EE0FFF1FE80F1B
:1015E000F91FE75FFA4FE0818E2F90E0FC01EE0FCC
:1015F000FF1FE80FF91FEC51FB4F808186FF03C0EE
:10160000812F0E94040A52EF952E910E85E08915D4
:1016100058F061E070E032E0E316F10411F070E0A0
:1016200060E0892D0E948B070231C8F4E12FE69516
:10163000E695E695F0E0ED50FD4F2081312F3770B3
:1016400081E090E001C0880F3A95EAF7E114F104D7
:1016500021F03BE0E316F10401F5822B8083560173
:10166000AA0CBB1CF501E155FB4F118210828CE0E6
:10167000E816F10408F0CBC0F701EF5BF44F0C94CF
:10168000E017610B8E0B500BA50BC40B070CFB0B6B
:10169000070C070C070C6D0B790B80958223DECFAE
:1016A00035E03915D0F0023120F460E0812F0E943E
:1016B000BD02CD57DF4F88818F3779F082E0888374
:1016C0000CC0023150F460E0812F0E94BD02CD5762
:1016D000DF4F88818F3709F01882DF91CF911F91FA
:1016E0000F91FF90EF90DF90CF90BF90AF909F90C1
:1016F0000895023190F762E0812F0E94BD02CD571C
:10170000DF4F88818F3711F08BE08883F501E15539
:10171000FB4F81E090E091838083DFCF0231E8F6D8
:10172000FE01ED57FF4F8081833021F460E0812F6F
:101730000E94710261E0812F0E94BD02CD57DF4FF0
:1017400088818F3751F281E0BACF133049F08BEFA7
:10175000810F823028F087EF810F833008F0BDCFF2
:1017600061E0812F0E94BD0261E0812F0E94BD02D5
:1017700060E0812F0E947102CD57DF4F88818F3743
:1017800009F4ABCF83E09BCF023108F0A6CFCD5751
:10179000DF4F88818F3711F084E08883F601E85AA3
:1017A000FD4F80818F3FA9F090E0FC01EE0FFF1FFD
:1017B000E80FF91FE75FFA4FE0818E2F90E0FC0100
:1017C000EE0FFF1FE80FF91FEC51FB4F808186FDE4
:1017D00084CF4FEF5FEF6FEF7FEF812FDF91CF91DE
:1017E0001F910F91FF90EF90DF90CF90BF90AF903F
:1017F0009F900C94430A1251123008F06ECFCD57CF
:10180000DF4F88818F3709F468CF86E058CF81E4B5
:1018100091E0DF91CF911F910F91FF90EF90DF90BA
:10182000CF90BF90AF909F900C94370A0F931F9367
:10183000CF93DF9381E08093700280916F028823C1
:1018400029F010926F028FEF809300011092F60240
:101850001092F30210926C021092F7021092F402AE
:1018600010926D021092F8021092F50210926E0220
:1018700008E512E0C0E0DFEF82EF8C0F62E070E07D
:10188000863030F08EEF8C0F823128F461E070E00A
:101890008C2F0E94B70AF801D1938F01CF5FC4311A
:1018A00059F71092260310922503109257021092B6
:1018B000560210927002DF91CF911F910F910895FF
:1018C0004F925F926F927F928F929F92AF92BF9250
:1018D000DF92EF92FF920F931F93CF93DF93D82E57
:1018E0008B01D42FC22F6F3F760709F490C081E09F
:1018F00080935703D09279031092580310927A0381
:1019000088ED94E00E94DA068C2F0E949105809168
:101910005402909155028230910538F0880F991F3A
:10192000880F991F05970197F1F70E940E034B014D
:101930005C018091510381116CC0CD2FD13208F030
:10194000C0E281E080935103809350039FEF909316
:101950004F0310924E039C0F90934D0380932C03E2
:1019600090912C038D2D880F892B80932C038091CF
:101970002B03813009F09EC010922B030E940E03AE
:101980004B015C0180912C038093BB008091530339
:1019900090915403A0915503B0915603892B8A2B43
:1019A0008B2BA1F00E940E034090530350905403E0
:1019B0006090550370905603681979098A099B094C
:1019C000461657066806790608F444C08091BC00A4
:1019D00083FDD8CF85EC8093BC000E940E034B01A1
:1019E0005C0180915103813009F466C080914E03FF
:1019F0008C1710F4C0914E03ADE2B3E0E2E7F2E0E1
:101A000080E08C1761F19D9191938F5FFACF00E098
:101A10008CCF8091530390915403A0915503B091C2
:101A20005603892B8A2B8B2B09F483CF0E940E033C
:101A300040905303509054036090550370905603A8
:101A4000681979098A099B094616570668067906B6
:101A500008F06FCF809152030E947005C0E0109291
:101A60009302C0939202ED2EF12C8C2F90E0E81699
:101A7000F9060CF043C082E591E00E94370AD0924B
:101A800014020093150204E112E0C801845192404F
:101A90008E159F05D4F50F5F1F4F90919202809194
:101AA0009302981791F188ED94E00E949306F80153
:101AB0008183EBCF85EE8FCF8091530390915403B8
:101AC000A0915503B0915603892B8A2B8B2B09F4D7
:101AD00088CF0E940E0340905303509054036090AF
:101AE000550370905603681979098A099B094616AF
:101AF00057066806790608F074CFACCF8E159F059F
:101B00000CF0BDCF8FE691E0B8CFDE5F6D2F70E0B7
:101B100044E152E087E7DF91CF911F910F91FF9051
:101B2000EF90DF90BF90AF909F908F907F906F90DD
:101B30005F904F900C946504EF92FF920F931F9368
:101B4000CF93DF938956823108F033C0EA01162F14
:101B5000E82FF0E0E255F24F0C94E017F40FD90DA6
:101B60005B0FD90DB30FD90D390FDD0ED90DD90D7E
:101B7000D90DD90DD90DC00DD90DA10ED90D230F39
:101B8000998195FF0AC08BE891E0DF91CF911F9179
:101B90000F91FF90EF900C94370A888131E096FB0B
:101BA000222720F9232798719830D1F148F49923FE
:101BB000A9F0DF91CF911F910F91FF90EF900895C1
:101BC000903109F44CC09831A1F720910001121610
:101BD0000CF472C08FEF80930001EBCF309357036A
:101BE000809379031092580310927A0302E0011750
:101BF00078F4FE01E00FF11D618167956627679516
:101C00008081680F88ED94E00E94DA060E5FEFCFC6
:101C100081E00E94910583E191E00197F1F7C9CF3E
:101C20009A814B816630A1F430E8439FB0011124C2
:101C3000690F711D4D814795442747959C81490F38
:101C4000DF91CF911F910F91FF90EF900C94600C5A
:101C5000479544274795490F6FEF7FEFF1CFE0910C
:101C60000001E7301CF08BEA91E08FCF3A819B8135
:101C70006630D9F460E8969FA0011124430F511DEE
:101C80009D819795992797953C81930FEF5FE093FE
:101C9000000135E0E302F0011124E350FD4F8083A1
:101CA000528341839383248384CF97959927979573
:101CB000930F4FEF5FEFEACF90E0622F022E000C00
:101CC000770B35E0492F50E06417750764F0349FB7
:101CD000F001359FF00D1124E350FD4F408148176E
:101CE00019F09F5FEFCF90E085E0492F50E0641737
:101CF00075071CF19830F8F4FA0131968E9FD001E7
:101D00008F9FB00D1124A350BD4F3C91849FF001D3
:101D1000859FF00D1124E350FD4F308311964D91B6
:101D20005C9112975283418313963C9113973383AE
:101D300014963C9134839F5FD8CF215020930001AB
:101D400038CF623078F0898160E8869F9001112455
:101D50008881820F932F911D009721F09093550257
:101D60008093540280916F02811123CFC0E08EEEE8
:101D70008C0F823028F466E070E08C2F0E94B70A46
:101D8000CF5FC431A1F781E080936F02109293027C
:101D9000109292021092580310927A030E945205F8
:101DA00081E896E09093B6028093B50282E896E0CF
:101DB0009093BA028093B902FCCE653008F4F9CE54
:101DC00018818EEF810F823108F0F3CE0981EA800D
:101DD000FB80CC81E12FF0E0E85AFD4F80818C3010
:101DE000C0F490E0FC01EE0FFF1FE80FF91FE75F62
:101DF000FA4FE0818E2F90E0FC01EE0FFF1FE80FFD
:101E0000F91FEC51FB4F808186FF03C0812F0E9498
:101E1000040A80E8C89FA00111244F0D511D90E8CD
:101E2000E99EB0011124600F711D812F0E94430AA9
:101E300064E070E0812FDF91CF911F910F91FF90AF
:101E4000EF900C94B70A623008F4B3CE8981E0E8D1
:101E50008E9F900111248881820F932F911D0097EE
:101E600029F09093020180930101A3CE81E090E0DC
:101E7000F8CF623008F49DCE698170E0123091F0A5
:101E80008A81F0E88F9FC0011124682B792B1330D1
:101E900049F08B8190E090E4899F902D8827112450
:101EA000682B792B8881DF91CF911F910F91FF9043
:101EB000EF900C94640880EF0E9401018CE60E9470
:101EC0000101CEEF84EF8C0F863020F582E00E9476
:101ED00001018AE00E9401018DEF8C0F8230E0F059
:101EE00089EF8C0F8330F0F417C0C23158F780E0CF
:101EF0000E94010181E00E9401018BE00E9401012A
:101F000081E00E94010181E00E94010181E00E94C4
:101F10000101D8CFC13001F783E00E94010188E0C0
:101F20000E940101C23130F484E00E9401018EE080
:101F30000E94010180EF8C0F823030F486E00E9415
:101F4000010181E00E9401018FE70E940101CF5F42
:101F5000C23159F687EFDF91CF911F910F91FF901A
:101F6000EF900C940101662309F423CEC88180EF21
:101F70000E9401018EE60E9401018C2F0E94010146
:101F8000C43140F7D0E0FE01E556FB4F80810E944E
:101F90000101CC0FDD1F8E0101551B4FF80180811F
:101FA0008F770E940101F801808191819C01207846
:101FB000232B39F0880F892F881F990B8F770E9468
:101FC0000101C155DB4F888199819C012227307C1A
:101FD000232B09F4BFCF990F880B990F982F881FD7
:101FE0008F770E940101B6CF80EF0E9401018AE63F
:101FF0000E940101C2EF8FE7C63008F48C2F0E94C7
:102000000101CF5FC630B9F7A5CF1F920F920FB66F
:102010000F9211242F933F934F935F936F937F936E
:102020008F939F93AF93BF93EF93FF938BE793E0CF
:102030000E94E201FF91EF91BF91AF919F918F912B
:102040007F916F915F914F913F912F910F900FBEB4
:102050000F901F9018951F920F920FB60F92112498
:102060002F938F939F93EF93FF93E0918B03F091C6
:102070008C038081E0919103F091920382FD1BC05B
:102080009081809194038F5F8F73209195038217C5
:1020900041F0E0919403F0E0E558FC4F958F809378
:1020A0009403FF91EF919F918F912F910F900FBE0D
:1020B0000F901F9018958081F4CF1F920F920FB64A
:1020C0000F9211242F933F938F939F93AF93BF93BE
:1020D0008091F9029091FA02A091FB02B091FC026A
:1020E0003091DE0223E0230F2D3758F50196A11D14
:1020F000B11D2093DE028093F9029093FA02A0931F
:10210000FB02B093FC028091DF029091E002A0916B
:10211000E102B091E2020196A11DB11D8093DF02A0
:102120009093E002A093E102B093E202BF91AF91DD
:102130009F918F913F912F910F900FBE0F901F9005
:10214000189526E8230F0296A11DB11DD2CF1F922C
:102150000F920FB60F9211240F900FBE0F901F9089
:1021600018951F920F920FB60F9211242F933F9341
:102170004F935F936F937F938F939F93AF93BF938F
:10218000EF93FF938091B900887F803609F44AC0AD
:10219000F0F5883209F4A7C018F5803109F49BC026
:1021A000B8F4882309F4F9C0883009F494C0FF9189
:1021B000EF91BF91AF919F918F917F916F915F91BF
:1021C0004F913F912F910F900FBE0F901F90189538
:1021D000883109F488C0803251F780934F0314C0CE
:1021E000803409F49DC040F48033B9F38833F9F6A4
:1021F00080934F0385ECB0C0803509F485C08835E5
:1022000009F496C0883499F60E947F0AD0CF8839A5
:1022100009F48CC038F5883729F050F4883611F06D
:10222000803729F683E0809351031092DB0257C078
:10223000883809F47BC0803919F0803809F0B7CFAD
:102240008091DB02803208F071C0E091DB0281E016
:102250008E0F8093DB028091BB00F0E0E554FD4FD0
:1022600080833DC0803B39F0E0F4803A09F479C0C6
:10227000883A09F09CCF84E0809351031092B80211
:102280001092B702E091B502F091B60209958091E3
:10229000B70281110FC081E08093B70210929502BE
:1022A00009C0803C09F4A6CF883C09F4A3CF883B41
:1022B00009F07DCFE091B80281E08E0F8093B802E3
:1022C000F0E0EB56FD4F80818093BB009091B80207
:1022D0008091B70229C080912C038093BB0085ECCC
:1022E0008093BC0064CF90914E0380914D0398176A
:1022F00058F5E0914E0381E08E0F80934E03F0E09D
:10230000E35DFC4F8081E9CFE0914E0381E08E0FC9
:1023100080934E038091BB00F0E0E35DFC4F80832F
:1023200090914E0380914D039817C8F285E8D8CF5D
:10233000E0914E0381E08E0F80934E038091BB00AD
:10234000F0E0E35DFC4F80838091500381115CCF0E
:1023500081E080932B0384EA8093BC0010925103A8
:1023600026CF85EC8093BC00109251038091DB0254
:10237000803230F4E091DB02F0E0E554FD4F108252
:102380006091DB0270E0E091B902F091BA028BEB50
:1023900092E009951092DB020ACF10924F0334CFDE
:1023A0001F920F920FB60F9211242F933F934F93CA
:1023B0005F936F937F938F939F93AF93BF93CF93CD
:1023C000DF93EF93FF9380917102C0910805D0E0F5
:1023D00087FF24C0109285001092840080917102C2
:1023E0008F5F8093710280917102082E000C990B0F
:1023F0008C179D0724F4809171028C30C4F1809178
:10240000840090918500049680349C4908F47AC039
:102410008091840090918500049676C0809171022D
:10242000082E000C990B8C179D07C4F6E0917102E1
:102430008E2FEE0F990BFC01EE0FFF1FE80FF91F17
:10244000EC51FB4F808186FFC9CFE09171028E2F46
:10245000EE0F990BFC01EE0FFF1FE80FF91FEC5177
:10246000FB4F808160E08F730E947102B7CF209193
:10247000840030918500E09171028E2FEE0F990B50
:10248000FC01EE0FFF1FE80FF91FEC51FB4F81819C
:102490009281820F931F9093890080938800E0912E
:1024A00071028E2FEE0F990BFC01EE0FFF1FE80F4C
:1024B000F91FEC51FB4F808186FF11C0E091710242
:1024C0008E2FEE0F990BFC01EE0FFF1FE80FF91F87
:1024D000EC51FB4F808161E08F730E947102FF918C
:1024E000EF91DF91CF91BF91AF919F918F917F91AC
:1024F0006F915F914F913F912F910F900FBE0F9071
:102500001F90189580E49CE990938900809388003F
:102510008FEF80937102E3CF10927E0310927D03C0
:1025200048EE53E060E070E040937F0350938003F7
:1025300060938103709382038DE091E090937C031C
:1025400080937B0385EC90E09093880380938703CE
:1025500084EC90E090938A038093890380EC90E070
:1025600090938C0380938B0381EC90E090938E0387
:1025700080938D0382EC90E09093900380938F037F
:1025800086EC90E0909392038093910310929403D1
:1025900010929503109296031092970388E194E0AD
:1025A000109259041092580490935C0480935B0439
:1025B00020E430E030935E0420935D0410925F04C9
:1025C00010926004109262041092610410926304ED
:1025D00010926504109264041092670410926604CD
:1025E000109269041092680410926B0410926A04AD
:1025F00010926D0410926C0410926F0410926E048D
:102600001092710410927004109277041092760464
:10261000109279041092780410927B0410927A043C
:1026200010927D0410927C0410928B0410928A0404
:1026300010925A041092980410929A0410929904DD
:102640001092D70427E830E030937F0420937E0473
:1026500021E930E030938104209380042BE930E0BD
:10266000309383042093820425EA30E0309385047C
:10267000209384042FEA30E030938704209386046B
:1026800029EB30E0309389042093880423EC30E078
:1026900030938D0420938C0424EC30E030938F042D
:1026A00020938E0426E235E0309391042093900429
:1026B00090937304809372042DE531E0309393047A
:1026C0002093920490937504809374048FEC90E0AF
:1026D00090939504809394041092DB041092DA0492
:1026E0004093DC045093DD046093DE047093DF04B8
:1026F0008FE191E09093D9048093D804E9E0F5E06C
:102700002FEF48EB5BE0809108058C30B8F491E046
:10271000980F90930805808390E0DC01AA0FBB1FFF
:10272000A80FB91FAC51BB4F12965C934E931197F3
:10273000339685E0ED32F80731F708952083F8CF1E
:10274000789484B5826084BD84B5816084BD85B58C
:10275000826085BD85B5816085BD80916E00816098
:1027600080936E001092810080918100826080933E
:102770008100809181008160809381008091800040
:102780008160809380008091B10084608093B1006B
:102790008091B00081608093B00080917A00846065
:1027A00080937A0080917A00826080937A00809191
:1027B0007A00816080937A0080917A0080688093AB
:1027C0007A001092C10088E1809398048091990466
:1027D00090919A040E948218C0919804D0E0CE0192
:1027E00001960E94E61790939A0480939904FC0145
:1027F000EC0FFD1F108212E0DC011C9325E0119606
:102800002C93AE014250510961EF71E002960E9493
:102810000B1984E698E09093EE028093ED0288EB2A
:1028200097E09093EC028093EB028BE897E0909313
:10283000EA028093E90289ED99E09093E80280939F
:10284000E70287EB9AE09093E6028093E50282E844
:1028500099E09093E4028093E3028CE99DE09093E9
:10286000F0028093EF0286E19CE09093F202809365
:10287000F102E0918B03F0918C031083E0918B03C4
:10288000F0918C031082E0918703F091880310820D
:10289000E0918903F0918A0380E180831092930391
:1028A000E0918F03F091900386E08083E0918D03A7
:1028B000F0918E03808180618083E0918D03F0919F
:1028C0008E03808188608083E0918D03F0918E0378
:1028D000808180688083E0918D03F0918E038081F8
:1028E0008F7D80838091D70481114FC061E08DE09E
:1028F0000E94BD0262ED70E080E090E00E94330330
:1029000061E08DE00E94710268E270E080E090E09A
:102910000E94330360E08DE00E94710262ED70E07E
:1029200080E090E00E94330361E08DE00E9471023C
:1029300068E270E080E090E00E94330360E08DE0A8
:102940000E9471026AEF70E080E090E00E94330321
:10295000C5E062ED70E080E090E00E94330361E04A
:102960008DE00E94710268E270E080E090E00E94D9
:10297000330360E08DE00E947102C15051F76DE7B2
:1029800070E080E090E00E9433038BE793E0909347
:10299000970480939604909359048093580488E593
:1029A00094E00E94D70088E194E00E94B2040E9463
:1029B000160C25E0D22EC0E0D0E0CC24C39402E077
:1029C00010E0EE24E394F12C8091F602882349F084
:1029D00069B18091F30268236C7F40E080E00E943F
:1029E00097098091F702882379F063B186B16F73FC
:1029F000B0E48B9FC0011124682B8091F4026823FE
:102A000040E081E00E9497098091F802882359F004
:102A100066B18091F5028F7066956695682340E0F7
:102A200082E00E9497098091960490919704DC01BE
:102A3000ED91FC910084F185E02D0995892B09F435
:102A4000CEC18091960490919704DC01ED91FC91A8
:102A50000284F385E02D09959C018F3F980719F3B7
:102A6000982F80916304882309F492C0973F09F05E
:102A70007EC010926304A0915B04B0915C046C91E1
:102A80006137C1F1693709F05CC0E0919004F091C1
:102A90009104309741F280916404909165048330F1
:102AA000910560F430E020E050E040E070E060E04C
:102AB00080917204909173040995B5CFBD016D5F4B
:102AC0007F4F03970E943E01BC016D5F7F4F80E006
:102AD0000E940E01E0915B04F0915C049F012D5F68
:102AE0003F4F428150E0618170E0E0919004F091AD
:102AF0009104DECF80918C0490918D04892B09F490
:102B000092CFBD016F5F7F4F809164049091650407
:102B100001970E943E01BC016F5F7F4F80E00E94E1
:102B20000E0160915B0470915C046F5F7F4FE091D8
:102B30008C04F0918D04809178049091790409952A
:102B400072CFE0918E04F0918F04309709F46BCF2F
:102B50009D012F5F3F4F40916404509165044150A7
:102B6000510980917A0490917B0409955CCF609122
:102B7000640470916504822F0E940E0180916404A8
:102B800090916504019690936504809364044BCF03
:102B900060916104709162046115710509F4B1C01E
:102BA00027FDAFC0615071097093620460936104A6
:102BB000822F0E940E018091610490916204892B02
:102BC00009F031CF80915F04882309F42CCF803D38
:102BD00009F483C040F4803949F1803C09F469C0AC
:102BE00010925F0420CF843FE1F1853F09F44DC08E
:102BF000803EB1F7E0917E04F0917F04309781F33D
:102C0000A0915B04B0915C044C9120E8429FC0010C
:102C1000112411964C91480F592F511D6091600459
:102C200080916604909167040995DACFE091800461
:102C3000F09181043097A1F2A0915B04B0915C0403
:102C40004C9120E8429FC001112411964C91480FED
:102C5000592F511D6091600480916804909169041E
:102C6000E3CFE0918604F0918704309709F4B8CF60
:102C7000A0915B04B0915C044C9150E011966C9172
:102C800080916E0490916F04CFCFE0918804F09111
:102C90008904309709F4A4CFA0915B04B0915C043F
:102CA0004C9150E011966C91809170049091710458
:102CB000BBCFE0918204F0918304309709F490CF68
:102CC000A0915B04B0915C044C9150E06091600471
:102CD00080916A0490916B04A7CFE0918404F091F5
:102CE0008504309709F47CCFA0915B04B0915C041B
:102CF0004C9150E06091600480916C0490916D045F
:102D000093CF903F30F4822F8F7080936004922F86
:102D1000907F903FF1F190F4903CB1F150F49039F4
:102D200009F081CE109362040093610490935F04D4
:102D30007ACE903D49F1903EA9F375CE993F09F4C2
:102D400042C028F48CE0890F823060F36CCE9F3F44
:102D500009F069CE109262041092610410925F042F
:102D60001092600490E080E020915D0430915E0458
:102D700082179307A8F4E0915B04F0915C04E80FDC
:102D8000F91F10820196F0CFF0926204E092610484
:102D9000CDCFC0926304109265041092640443CEB8
:102DA000109263041092650410926404E0919404FC
:102DB000F091950480917C0490917D04309709F402
:102DC00032CE099530CEE0919204F0919304309781
:102DD00009F429CE8091740490917504F2CF8FB7D5
:102DE000F8948090F9029090FA02A090FB02B090C3
:102DF000FC028FBF8091270390912803A0912903A3
:102E0000B0912A03409101015091020170E060E00D
:102E1000881A990AAA0ABB0A481559056A057B054A
:102E200008F054C0840F951FA61FB71F8093270377
:102E300090932803A0932903B0932A0388E1882E56
:102E400084E0982E92EFB92E85E08B15C8F0F4013E
:102E5000ED57FF4F8081823099F480912503909146
:102E600026030B2C02C0959587950A94E2F780FF04
:102E700007C08B2D0E94F902BC018B2D0E94050416
:102E8000B394AFEF8A1A9A0AB6E0BB12DDCF8091F5
:102E9000000187FD1BC0B12C2B2D30E0809100017B
:102EA000082E000C990B8217930784F0D29EF00134
:102EB000D39EF00D1124E350FD4F61817281248176
:102EC000438180810E94600CB394E6CF209709F47F
:102ED0007BCD0E94CE01882309F476CD0E940000AC
:102EE00073CD052E97FB1EF400940E94881757FDA2
:102EF00007D00E94A31707FC03D04EF40C94881748
:102F000050954095309521953F4F4F4F5F4F089515
:102F100090958095709561957F4F8F4F9F4F089545
:102F20000E94C517A59F900DB49F900DA49F800D82
:102F3000911D11240895B7FF0C9490170E949017CB
:102F4000821B930B0895A1E21A2EAA1BBB1BFD0145
:102F50000DC0AA1FBB1FEE1FFF1FA217B307E40778
:102F6000F50720F0A21BB30BE40BF50B661F771FD0
:102F7000881F991F1A9469F76095709580959095B0
:102F80009B01AC01BD01CF010895A29FB001B39F89
:102F9000C001A39F700D811D1124911DB29F700D62
:102FA000811D1124911D0895991B79E004C0991F7A
:102FB000961708F0961B881F7A95C9F78095089593
:102FC000EE0FFF1F0590F491E02D09940F931F93CE
:102FD000CF93DF938230910510F482E090E0E0918E
:102FE0002F05F091300530E020E0B0E0A0E0309710
:102FF00099F42115310509F44AC0281B390B2430F6
:103000003105D8F58A819B816115710589F1FB0134
:1030100093838283FE0111C040815181028113811B
:1030200048175907E0F04817590799F4109761F0CD
:1030300012960C93129713961C933296CF01DF9140
:10304000CF911F910F91089500932F051093300594
:10305000F4CF2115310551F04217530738F0A9017B
:10306000DB019A01BD01DF01F801C1CFEF01F9CF0A
:103070009093300580932F05CDCFFE01E20FF31F13
:10308000819391932250310939832883D7CF20919E
:103090002D0530912E05232B41F42091050130910F
:1030A000060130932E0520932D05209103013091C8
:1030B00004012115310541F42DB73EB740910701B8
:1030C00050910801241B350BE0912D05F0912E0540
:1030D000E217F307A0F42E1B3F0B2817390778F0EF
:1030E000AC014E5F5F4F2417350748F04E0F5F1F4E
:1030F00050932E0540932D05819391939FCFF0E03F
:10310000E0E09CCFCF93DF930097E9F0FC0132978A
:1031100013821282A0912F05B0913005ED0130E0AD
:1031200020E01097A1F420813181820F931F20911C
:103130002D0530912E052817390709F061C0F0934D
:103140002E05E0932D05DF91CF910895EA01CE176A
:10315000DF07E8F54A815B819E0141155105B1F712
:10316000E901FB83EA8349915991C40FD51FEC17FC
:10317000FD0761F4808191810296840F951FE9011A
:1031800099838883828193819B838A83F0E0E0E046
:1031900012968D919C9113970097B9F52D913C91C2
:1031A0001197CD010296820F931F20912D0530912A
:1031B0002E052817390739F6309751F5109230054A
:1031C00010922F05B0932E05A0932D05BCCFD3836D
:1031D000C28340815181840F951FC817D90761F4BC
:1031E0004E5F5F4F88819981480F591F51834083FB
:1031F0008A819B81938382832115310509F0B0CFA9
:10320000F0933005E0932F059ECFFD01DC01C0CF88
:1032100013821282D7CFFB01DC014150504048F0AD
:1032200001900D920020C9F701C01D9241505040FD
:08323000E0F70895F894FFCFC8
:10323800FF13000000310580000000000004026454
:103248000191015102C201A001B40100000000DA9D
:1032580006AD0609078306A606930684064D61781F
:1032680020736572766F7320617474616368656436
:1032780000556E6B6E6F776E2070696E206D6F648F
:1032880065004932433A20546F6F206D616E792092
:10329800627974657320726563656976656400494F
:1032A80032433A20546F6F206665772062797465DF
:1032B800732072656365697665640031302D6269D3
:1032C800742061646472657373696E67206E6F74CD
:1032D80020737570706F7274656400746F6F206D01
:1032E800616E79207175657269657300433A5C5542
:1032F800736572735C5869616F6D695C446F63755F
:103308006D656E74735C41726475696E6F5C53743D
:10331800616E646172644669726D617461556E6F45
:103328005C5374616E646172644669726D61746144
:08333800556E6F2E696E6F00E7
:00000001FF
